{
  "_format": "hh-sol-artifact-1",
  "contractName": "CarbonReportRegistry",
  "sourceName": "contracts/CarbonReportRegistry.sol",
  "abi": [
    {
      "inputs": [],
      "stateMutability": "nonpayable",
      "type": "constructor"
    },
    {
      "inputs": [
        {
          "internalType": "address",
          "name": "owner",
          "type": "address"
        }
      ],
      "name": "OwnableInvalidOwner",
      "type": "error"
    },
    {
      "inputs": [
        {
          "internalType": "address",
          "name": "account",
          "type": "address"
        }
      ],
      "name": "OwnableUnauthorizedAccount",
      "type": "error"
    },
    {
      "anonymous": false,
      "inputs": [
        {
          "indexed": true,
          "internalType": "address",
          "name": "previousOwner",
          "type": "address"
        },
        {
          "indexed": true,
          "internalType": "address",
          "name": "newOwner",
          "type": "address"
        }
      ],
      "name": "OwnershipTransferred",
      "type": "event"
    },
    {
      "anonymous": false,
      "inputs": [
        {
          "indexed": false,
          "internalType": "string",
          "name": "reportId",
          "type": "string"
        }
      ],
      "name": "ReportRevoked",
      "type": "event"
    },
    {
      "anonymous": false,
      "inputs": [
        {
          "indexed": false,
          "internalType": "string",
          "name": "reportId",
          "type": "string"
        },
        {
          "indexed": false,
          "internalType": "bytes32",
          "name": "reportHash",
          "type": "bytes32"
        },
        {
          "indexed": false,
          "internalType": "address",
          "name": "submitter",
          "type": "address"
        },
        {
          "indexed": false,
          "internalType": "uint256",
          "name": "timestamp",
          "type": "uint256"
        }
      ],
      "name": "ReportSubmitted",
      "type": "event"
    },
    {
      "inputs": [
        {
          "internalType": "uint256",
          "name": "",
          "type": "uint256"
        }
      ],
      "name": "allReportIds",
      "outputs": [
        {
          "internalType": "string",
          "name": "",
          "type": "string"
        }
      ],
      "stateMutability": "view",
      "type": "function"
    },
    {
      "inputs": [],
      "name": "getAllReportIds",
      "outputs": [
        {
          "internalType": "string[]",
          "name": "",
          "type": "string[]"
        }
      ],
      "stateMutability": "view",
      "type": "function"
    },
    {
      "inputs": [
        {
          "internalType": "string",
          "name": "reportId",
          "type": "string"
        }
      ],
      "name": "getReport",
      "outputs": [
        {
          "components": [
            {
              "internalType": "bytes32",
              "name": "reportHash",
              "type": "bytes32"
            },
            {
              "internalType": "address",
              "name": "submitter",
              "type": "address"
            },
            {
              "internalType": "uint256",
              "name": "timestamp",
              "type": "uint256"
            },
            {
              "internalType": "string",
              "name": "reportId",
              "type": "string"
            },
            {
              "internalType": "string",
              "name": "companyName",
              "type": "string"
            },
            {
              "internalType": "uint256",
              "name": "co2Tonnes",
              "type": "uint256"
            },
            {
              "internalType": "bool",
              "name": "isValid",
              "type": "bool"
            }
          ],
          "internalType": "struct CarbonReportRegistry.CarbonReport",
          "name": "",
          "type": "tuple"
        }
      ],
      "stateMutability": "view",
      "type": "function"
    },
    {
      "inputs": [
        {
          "internalType": "bytes32",
          "name": "",
          "type": "bytes32"
        }
      ],
      "name": "hashToReportId",
      "outputs": [
        {
          "internalType": "string",
          "name": "",
          "type": "string"
        }
      ],
      "stateMutability": "view",
      "type": "function"
    },
    {
      "inputs": [],
      "name": "owner",
      "outputs": [
        {
          "internalType": "address",
          "name": "",
          "type": "address"
        }
      ],
      "stateMutability": "view",
      "type": "function"
    },
    {
      "inputs": [],
      "name": "renounceOwnership",
      "outputs": [],
      "stateMutability": "nonpayable",
      "type": "function"
    },
    {
      "inputs": [
        {
          "internalType": "string",
          "name": "",
          "type": "string"
        }
      ],
      "name": "reports",
      "outputs": [
        {
          "internalType": "bytes32",
          "name": "reportHash",
          "type": "bytes32"
        },
        {
          "internalType": "address",
          "name": "submitter",
          "type": "address"
        },
        {
          "internalType": "uint256",
          "name": "timestamp",
          "type": "uint256"
        },
        {
          "internalType": "string",
          "name": "reportId",
          "type": "string"
        },
        {
          "internalType": "string",
          "name": "companyName",
          "type": "string"
        },
        {
          "internalType": "uint256",
          "name": "co2Tonnes",
          "type": "uint256"
        },
        {
          "internalType": "bool",
          "name": "isValid",
          "type": "bool"
        }
      ],
      "stateMutability": "view",
      "type": "function"
    },
    {
      "inputs": [
        {
          "internalType": "string",
          "name": "reportId",
          "type": "string"
        }
      ],
      "name": "revokeReport",
      "outputs": [],
      "stateMutability": "nonpayable",
      "type": "function"
    },
    {
      "inputs": [
        {
          "internalType": "string",
          "name": "reportId",
          "type": "string"
        },
        {
          "internalType": "bytes32",
          "name": "reportHash",
          "type": "bytes32"
        },
        {
          "internalType": "string",
          "name": "companyName",
          "type": "string"
        },
        {
          "internalType": "uint256",
          "name": "co2Tonnes",
          "type": "uint256"
        }
      ],
      "name": "submitReport",
      "outputs": [],
      "stateMutability": "nonpayable",
      "type": "function"
    },
    {
      "inputs": [
        {
          "internalType": "address",
          "name": "newOwner",
          "type": "address"
        }
      ],
      "name": "transferOwnership",
      "outputs": [],
      "stateMutability": "nonpayable",
      "type": "function"
    },
    {
      "inputs": [
        {
          "internalType": "bytes32",
          "name": "reportHash",
          "type": "bytes32"
        }
      ],
      "name": "verifyReport",
      "outputs": [
        {
          "internalType": "bool",
          "name": "isValid",
          "type": "bool"
        },
        {
          "internalType": "string",
          "name": "reportId",
          "type": "string"
        },
        {
          "internalType": "uint256",
          "name": "timestamp",
          "type": "uint256"
        }
      ],
      "stateMutability": "view",
      "type": "function"
    }
  ],
  "bytecode": "0x608060405234801561001057600080fd5b50338061003757604051631e4fbdf760e01b81526000600482015260240160405180910390fd5b61004081610046565b50610096565b600080546001600160a01b038381166001600160a01b0319831681178455604051919092169283917f8be0079c531659141344cd1fd0a4f28419497f9722a3daafe3b4186f6b6457e09190a35050565b611550806100a56000396000f3fe608060405234801561001057600080fd5b50600436106100a95760003560e01c806365287e231161007157806365287e2314610149578063715018a61461015c578063716199fc146101645780638da5cb5b146101845780639a5613eb1461019f578063f2fde38b146101b257600080fd5b806312e63d71146100ae578063131eb28e146100d75780631fd22601146100ec5780634d0983b01461010e57806364cceaef14610123575b600080fd5b6100c16100bc366004610ec3565b6101c5565b6040516100ce9190610f55565b60405180910390f35b6100df610403565b6040516100ce9190610fd8565b6100ff6100fa36600461103a565b6104dc565b6040516100ce93929190611053565b61012161011c366004610ec3565b610755565b005b610136610131366004611094565b6108a8565b6040516100ce9796959493929190611145565b6101216101573660046111a0565b610a12565b610121610ce6565b61017761017236600461103a565b610cfa565b6040516100ce9190611222565b6000546040516001600160a01b0390911681526020016100ce565b6101776101ad36600461103a565b610d94565b6101216101c036600461123c565b610dbf565b6040805160e0810182526000808252602082018190528183018190526060808301819052608083015260a0820181905260c0820152905160019061020c9085908590611265565b90815260200160405180910390206002015460000361026a5760405162461bcd60e51b815260206004820152601560248201527414995c1bdc9d08191bd95cc81b9bdd08195e1a5cdd605a1b60448201526064015b60405180910390fd5b6001838360405161027c929190611265565b90815260408051918290036020908101832060e0840183528054845260018101546001600160a01b0316918401919091526002810154918301919091526003810180546060840191906102ce90611275565b80601f01602080910402602001604051908101604052809291908181526020018280546102fa90611275565b80156103475780601f1061031c57610100808354040283529160200191610347565b820191906000526020600020905b81548152906001019060200180831161032a57829003601f168201915b5050505050815260200160048201805461036090611275565b80601f016020809104026020016040519081016040528092919081815260200182805461038c90611275565b80156103d95780601f106103ae576101008083540402835291602001916103d9565b820191906000526020600020905b8154815290600101906020018083116103bc57829003601f168201915b50505091835250506005820154602082015260069091015460ff1615156040909101529392505050565b60606003805480602002602001604051908101604052809291908181526020016000905b828210156104d357838290600052602060002001805461044690611275565b80601f016020809104026020016040519081016040528092919081815260200182805461047290611275565b80156104bf5780601f10610494576101008083540402835291602001916104bf565b820191906000526020600020905b8154815290600101906020018083116104a257829003601f168201915b505050505081526020019060010190610427565b50505050905090565b6000818152600260205260408120805460609183918291906104fd90611275565b80601f016020809104026020016040519081016040528092919081815260200182805461052990611275565b80156105765780601f1061054b57610100808354040283529160200191610576565b820191906000526020600020905b81548152906001019060200180831161055957829003601f168201915b5050505050905080516000036105a257505060408051602081019091526000808252925090508161074e565b60006001826040516105b491906112af565b90815260408051918290036020908101832060e0840183528054845260018101546001600160a01b03169184019190915260028101549183019190915260038101805460608401919061060690611275565b80601f016020809104026020016040519081016040528092919081815260200182805461063290611275565b801561067f5780601f106106545761010080835404028352916020019161067f565b820191906000526020600020905b81548152906001019060200180831161066257829003601f168201915b5050505050815260200160048201805461069890611275565b80601f01602080910402602001604051908101604052809291908181526020018280546106c490611275565b80156107115780601f106106e657610100808354040283529160200191610711565b820191906000526020600020905b8154815290600101906020018083116106f457829003601f168201915b50505091835250506005820154602082015260069091015460ff16151560409182015260c082015160608301519290910151909650909450925050505b9193909250565b61075d610dfd565b6001828260405161076f929190611265565b9081526020016040518091039020600201546000036107c85760405162461bcd60e51b815260206004820152601560248201527414995c1bdc9d08191bd95cc81b9bdd08195e1a5cdd605a1b6044820152606401610261565b600182826040516107da929190611265565b9081526040519081900360200190206006015460ff166108355760405162461bcd60e51b815260206004820152601660248201527514995c1bdc9d08185b1c9958591e481c995d9bdad95960521b6044820152606401610261565b600060018383604051610849929190611265565b908152604051908190036020018120600601805492151560ff19909316929092179091557fe62b0d7a8b2b5cc250980b2bb62abf764acac6be3edd9e65cd839304e94c97e99061089c90849084906112f4565b60405180910390a15050565b805160208183018101805160018083529383019290940191909120929052815490820154600283015460038401805493946001600160a01b03909316939192916108f190611275565b80601f016020809104026020016040519081016040528092919081815260200182805461091d90611275565b801561096a5780601f1061093f5761010080835404028352916020019161096a565b820191906000526020600020905b81548152906001019060200180831161094d57829003601f168201915b50505050509080600401805461097f90611275565b80601f01602080910402602001604051908101604052809291908181526020018280546109ab90611275565b80156109f85780601f106109cd576101008083540402835291602001916109f8565b820191906000526020600020905b8154815290600101906020018083116109db57829003601f168201915b50505050600583015460069093015491929160ff16905087565b610a1a610dfd565b60018686604051610a2c929190611265565b908152602001604051809103902060020154600014610a8d5760405162461bcd60e51b815260206004820152601860248201527f5265706f727420494420616c72656164792065786973747300000000000000006044820152606401610261565b60008481526002602052604090208054610aa690611275565b159050610af55760405162461bcd60e51b815260206004820152601e60248201527f5265706f7274206861736820616c7265616479207265676973746572656400006044820152606401610261565b60006040518060e00160405280868152602001336001600160a01b0316815260200142815260200188888080601f016020809104026020016040519081016040528093929190818152602001838380828437600092019190915250505090825250604080516020601f880181900481028201810190925286815291810191908790879081908401838280828437600092019190915250505090825250602081018490526001604091820181905290519192508291610bb6908a908a90611265565b908152604080516020928190038301902083518155918301516001830180546001600160a01b0319166001600160a01b03909216919091179055820151600282015560608201516003820190610c0c908261135f565b5060808201516004820190610c21908261135f565b5060a0820151600582015560c0909101516006909101805460ff19169115159190911790556000858152600260205260409020610c5f87898361141f565b50600380546001810182556000919091527fc2575a0e9e593c00f959f8c92f12db2869c3395a3b0502d05e2516446f71f85b01610c9d87898361141f565b507f1c76dc55abef9a8beba3d8e04892cb1b4ad2edc17db6d96766579ad0da540c6f8787873342604051610cd59594939291906114e0565b60405180910390a150505050505050565b610cee610dfd565b610cf86000610e2a565b565b60026020526000908152604090208054610d1390611275565b80601f0160208091040260200160405190810160405280929190818152602001828054610d3f90611275565b8015610d8c5780601f10610d6157610100808354040283529160200191610d8c565b820191906000526020600020905b815481529060010190602001808311610d6f57829003601f168201915b505050505081565b60038181548110610da457600080fd5b906000526020600020016000915090508054610d1390611275565b610dc7610dfd565b6001600160a01b038116610df157604051631e4fbdf760e01b815260006004820152602401610261565b610dfa81610e2a565b50565b6000546001600160a01b03163314610cf85760405163118cdaa760e01b8152336004820152602401610261565b600080546001600160a01b038381166001600160a01b0319831681178455604051919092169283917f8be0079c531659141344cd1fd0a4f28419497f9722a3daafe3b4186f6b6457e09190a35050565b60008083601f840112610e8c57600080fd5b50813567ffffffffffffffff811115610ea457600080fd5b602083019150836020828501011115610ebc57600080fd5b9250929050565b60008060208385031215610ed657600080fd5b823567ffffffffffffffff811115610eed57600080fd5b610ef985828601610e7a565b90969095509350505050565b60005b83811015610f20578181015183820152602001610f08565b50506000910152565b60008151808452610f41816020860160208601610f05565b601f01601f19169290920160200192915050565b602081528151602082015260018060a01b036020830151166040820152604082015160608201526000606083015160e06080840152610f98610100840182610f29565b90506080840151601f198483030160a0850152610fb58282610f29565b91505060a084015160c084015260c0840151151560e08401528091505092915050565b6000602080830181845280855180835260408601915060408160051b870101925083870160005b8281101561102d57603f1988860301845261101b858351610f29565b94509285019290850190600101610fff565b5092979650505050505050565b60006020828403121561104c57600080fd5b5035919050565b831515815260606020820152600061106e6060830185610f29565b9050826040830152949350505050565b634e487b7160e01b600052604160045260246000fd5b6000602082840312156110a657600080fd5b813567ffffffffffffffff808211156110be57600080fd5b818401915084601f8301126110d257600080fd5b8135818111156110e4576110e461107e565b604051601f8201601f19908116603f0116810190838211818310171561110c5761110c61107e565b8160405282815287602084870101111561112557600080fd5b826020860160208301376000928101602001929092525095945050505050565b87815260018060a01b038716602082015285604082015260e06060820152600061117260e0830187610f29565b82810360808401526111848187610f29565b60a0840195909552505090151560c09091015295945050505050565b600080600080600080608087890312156111b957600080fd5b863567ffffffffffffffff808211156111d157600080fd5b6111dd8a838b01610e7a565b90985096506020890135955060408901359150808211156111fd57600080fd5b5061120a89828a01610e7a565b979a9699509497949695606090950135949350505050565b6020815260006112356020830184610f29565b9392505050565b60006020828403121561124e57600080fd5b81356001600160a01b038116811461123557600080fd5b8183823760009101908152919050565b600181811c9082168061128957607f821691505b6020821081036112a957634e487b7160e01b600052602260045260246000fd5b50919050565b600082516112c1818460208701610f05565b9190910192915050565b81835281816020850137506000828201602090810191909152601f909101601f19169091010190565b6020815260006113086020830184866112cb565b949350505050565b601f82111561135a57600081815260208120601f850160051c810160208610156113375750805b601f850160051c820191505b8181101561135657828155600101611343565b5050505b505050565b815167ffffffffffffffff8111156113795761137961107e565b61138d816113878454611275565b84611310565b602080601f8311600181146113c257600084156113aa5750858301515b600019600386901b1c1916600185901b178555611356565b600085815260208120601f198616915b828110156113f1578886015182559484019460019091019084016113d2565b508582101561140f5787850151600019600388901b60f8161c191681555b5050505050600190811b01905550565b67ffffffffffffffff8311156114375761143761107e565b61144b836114458354611275565b83611310565b6000601f84116001811461147f57600085156114675750838201355b600019600387901b1c1916600186901b1783556114d9565b600083815260209020601f19861690835b828110156114b05786850135825560209485019460019092019101611490565b50868210156114cd5760001960f88860031b161c19848701351681555b505060018560011b0183555b5050505050565b6080815260006114f46080830187896112cb565b6020830195909552506001600160a01b039290921660408301526060909101529291505056fea26469706673582212200026b6fd8a357d7c99b94203c53568affe7681add3d039f9de0bb90b4b13d0d564736f6c63430008140033",
  "linkReferences": {},
  "deployedLinkReferences": {}
}